{
  "contractName": "ContestResult",
  "abi": [
    {
      "constant": false,
      "inputs": [
        {
          "name": "_contestid",
          "type": "uint256"
        },
        {
          "name": "_encrypted_result",
          "type": "string"
        }
      ],
      "name": "setContestResult",
      "outputs": [],
      "payable": false,
      "stateMutability": "nonpayable",
      "type": "function"
    },
    {
      "constant": true,
      "inputs": [
        {
          "name": "_contestid",
          "type": "uint256"
        }
      ],
      "name": "getContestResult",
      "outputs": [
        {
          "name": "",
          "type": "string"
        }
      ],
      "payable": false,
      "stateMutability": "view",
      "type": "function"
    },
    {
      "inputs": [],
      "payable": false,
      "stateMutability": "nonpayable",
      "type": "constructor"
    }
  ],
  "bytecode": "0x6060604052341561000f57600080fd5b33600260006101000a81548173ffffffffffffffffffffffffffffffffffffffff021916908373ffffffffffffffffffffffffffffffffffffffff16021790555061037b8061005f6000396000f30060606040526004361061004c576000357c0100000000000000000000000000000000000000000000000000000000900463ffffffff16806326270c79146100515780636e54df31146100b7575b600080fd5b341561005c57600080fd5b6100b5600480803590602001909190803590602001908201803590602001908080601f01602080910402602001604051908101604052809392919081815260200183838082843782019150505050505091905050610153565b005b34156100c257600080fd5b6100d860048080359060200190919050506101db565b6040518080602001828103825283818151815260200191508051906020019080838360005b838110156101185780820151818401526020810190506100fd565b50505050905090810190601f1680156101455780820380516001836020036101000a031916815260200191505b509250505060405180910390f35b600260009054906101000a900473ffffffffffffffffffffffffffffffffffffffff1673ffffffffffffffffffffffffffffffffffffffff163373ffffffffffffffffffffffffffffffffffffffff161415156101af57600080fd5b806001600084815260200190815260200160002090805190602001906101d6929190610296565b505050565b6101e3610316565b600160008381526020019081526020016000208054600181600116156101000203166002900480601f01602080910402602001604051908101604052809291908181526020018280546001816001161561010002031660029004801561028a5780601f1061025f5761010080835404028352916020019161028a565b820191906000526020600020905b81548152906001019060200180831161026d57829003601f168201915b50505050509050919050565b828054600181600116156101000203166002900490600052602060002090601f016020900481019282601f106102d757805160ff1916838001178555610305565b82800160010185558215610305579182015b828111156103045782518255916020019190600101906102e9565b5b509050610312919061032a565b5090565b602060405190810160405280600081525090565b61034c91905b80821115610348576000816000905550600101610330565b5090565b905600a165627a7a72305820517425c3e38cb442de50572b4ae5ab42a7a757c0383017607a9d4241e07442cb0029",
  "source": "pragma solidity ^0.4.18;\n\ncontract ContestResult {    \n    string encrypted_result;\n    mapping (uint256 => string) contests;// mapping of game instance address with its result\n    address owner;// application account\n   \n    function ContestResult() public{\n        owner = msg.sender;\n    }\n    \n    modifier onlyOwner {\n        require(msg.sender == owner);\n        _;\n    }\n    \n    function setContestResult(uint256 _contestid, string _encrypted_result) onlyOwner public {\n        contests[_contestid] = _encrypted_result;\n    }\n    \n    function getContestResult(uint256 _contestid) view public returns (string) {\n        return (contests[_contestid]);\n    }    \n}",
  "sourcePath": "/home/synerzip/projects/gambling-portal/on-chain/contracts/ContestResult.sol",
  "compiler": {
    "name": "solc",
    "version": "0.4.18+commit.9cf6e910.Emscripten.clang"
  },
  "schemaVersion": "1.0.1",
  "updatedAt": "2018-04-10T12:18:57.166Z"
}