{
  "contractName": "ContestResult",
  "abi": [
    {
      "constant": true,
      "inputs": [
        {
          "name": "_contestAddress",
          "type": "address"
        }
      ],
      "name": "getResult",
      "outputs": [
        {
          "name": "",
          "type": "string"
        }
      ],
      "payable": false,
      "stateMutability": "view",
      "type": "function"
    },
    {
      "constant": true,
      "inputs": [
        {
          "name": "",
          "type": "uint256"
        }
      ],
      "name": "contestAccounts",
      "outputs": [
        {
          "name": "",
          "type": "address"
        }
      ],
      "payable": false,
      "stateMutability": "view",
      "type": "function"
    },
    {
      "constant": false,
      "inputs": [
        {
          "name": "_contestAddress",
          "type": "address"
        },
        {
          "name": "_encrypted_result",
          "type": "string"
        }
      ],
      "name": "setContestResult",
      "outputs": [],
      "payable": false,
      "stateMutability": "nonpayable",
      "type": "function"
    },
    {
      "inputs": [],
      "payable": false,
      "stateMutability": "nonpayable",
      "type": "constructor"
    }
  ],
  "bytecode": "0x6060604052341561000f57600080fd5b336000806101000a81548173ffffffffffffffffffffffffffffffffffffffff021916908373ffffffffffffffffffffffffffffffffffffffff16021790555061053d8061005e6000396000f300606060405260043610610057576000357c0100000000000000000000000000000000000000000000000000000000900463ffffffff168063446a37e01461005c578063648536c91461010e578063f8161fcb14610171575b600080fd5b341561006757600080fd5b610093600480803573ffffffffffffffffffffffffffffffffffffffff169060200190919050506101ed565b6040518080602001828103825283818151815260200191508051906020019080838360005b838110156100d35780820151818401526020810190506100b8565b50505050905090810190601f1680156101005780820380516001836020036101000a031916815260200191505b509250505060405180910390f35b341561011957600080fd5b61012f60048080359060200190919050506102d4565b604051808273ffffffffffffffffffffffffffffffffffffffff1673ffffffffffffffffffffffffffffffffffffffff16815260200191505060405180910390f35b341561017c57600080fd5b6101eb600480803573ffffffffffffffffffffffffffffffffffffffff1690602001909190803590602001908201803590602001908080601f01602080910402602001604051908101604052809392919081815260200183838082843782019150505050505091905050610313565b005b6101f561042c565b600260008373ffffffffffffffffffffffffffffffffffffffff1673ffffffffffffffffffffffffffffffffffffffff1681526020019081526020016000208054600181600116156101000203166002900480601f0160208091040260200160405190810160405280929190818152602001828054600181600116156101000203166002900480156102c85780601f1061029d576101008083540402835291602001916102c8565b820191906000526020600020905b8154815290600101906020018083116102ab57829003601f168201915b50505050509050919050565b6003818154811015156102e357fe5b90600052602060002090016000915054906101000a900473ffffffffffffffffffffffffffffffffffffffff1681565b6000809054906101000a900473ffffffffffffffffffffffffffffffffffffffff1673ffffffffffffffffffffffffffffffffffffffff163373ffffffffffffffffffffffffffffffffffffffff1614151561036e57600080fd5b80600260008473ffffffffffffffffffffffffffffffffffffffff1673ffffffffffffffffffffffffffffffffffffffff16815260200190815260200160002090805190602001906103c1929190610440565b506001600380548060010182816103d891906104c0565b9160005260206000209001600085909190916101000a81548173ffffffffffffffffffffffffffffffffffffffff021916908373ffffffffffffffffffffffffffffffffffffffff16021790555050505050565b602060405190810160405280600081525090565b828054600181600116156101000203166002900490600052602060002090601f016020900481019282601f1061048157805160ff19168380011785556104af565b828001600101855582156104af579182015b828111156104ae578251825591602001919060010190610493565b5b5090506104bc91906104ec565b5090565b8154818355818115116104e7578183600052602060002091820191016104e691906104ec565b5b505050565b61050e91905b8082111561050a5760008160009055506001016104f2565b5090565b905600a165627a7a723058200aa66ec9df16300663bdddd3d8cb1dc5353abb0cee9c5233790d0a95a8669cfe0029",
  "source": "pragma solidity ^0.4.18;\n\ncontract ContestResult {    \n    address owner;// application account\n    string encrypted_result;\n    mapping (address => string) contests;// mapping of game instance address with its result\n    address[] public contestAccounts;//public address array of all game instances\n   \n    function ContestResult() public{\n        owner = msg.sender;\n    }\n    \n    modifier onlyOwner {\n        require(msg.sender == owner);\n        _;\n    }\n    \n    function setContestResult(address _contestAddress, string _encrypted_result) onlyOwner public {\n        contests[_contestAddress] = _encrypted_result;\n        contestAccounts.push(_contestAddress) -1;\n    }\n    \n    function getResult(address _contestAddress) view public returns (string) {\n        return (contests[_contestAddress]);\n    }    \n}",
  "sourcePath": "/home/synerzip/projects/gambling-portal/on-chain/contracts/ContestResult.sol",
  "compiler": {
    "name": "solc",
    "version": "0.4.18+commit.9cf6e910.Emscripten.clang"
  },
  "schemaVersion": "1.0.1",
  "updatedAt": "2018-05-07T09:48:12.013Z"
}