{
  "contractName": "Games",
  "abi": [
    {
      "constant": false,
      "inputs": [
        {
          "name": "_address",
          "type": "address"
        },
        {
          "name": "_encrypted_result",
          "type": "string"
        }
      ],
      "name": "setGameInstance",
      "outputs": [],
      "payable": false,
      "stateMutability": "nonpayable",
      "type": "function"
    },
    {
      "constant": true,
      "inputs": [],
      "name": "getGameInstances",
      "outputs": [
        {
          "name": "",
          "type": "address[]"
        }
      ],
      "payable": false,
      "stateMutability": "view",
      "type": "function"
    },
    {
      "constant": true,
      "inputs": [
        {
          "name": "",
          "type": "uint256"
        }
      ],
      "name": "gameInstanceAccounts",
      "outputs": [
        {
          "name": "",
          "type": "address"
        }
      ],
      "payable": false,
      "stateMutability": "view",
      "type": "function"
    },
    {
      "constant": true,
      "inputs": [
        {
          "name": "_address",
          "type": "address"
        }
      ],
      "name": "getGameInstance",
      "outputs": [
        {
          "name": "",
          "type": "string"
        }
      ],
      "payable": false,
      "stateMutability": "view",
      "type": "function"
    },
    {
      "inputs": [],
      "payable": false,
      "stateMutability": "nonpayable",
      "type": "constructor"
    }
  ],
  "bytecode": "0x6060604052341561000f57600080fd5b33600360006101000a81548173ffffffffffffffffffffffffffffffffffffffff021916908373ffffffffffffffffffffffffffffffffffffffff16021790555061065b8061005f6000396000f300606060405260043610610062576000357c0100000000000000000000000000000000000000000000000000000000900463ffffffff1680632c62591514610067578063514a542c146100e35780638bf724e61461014d578063c793e3b6146101b0575b600080fd5b341561007257600080fd5b6100e1600480803573ffffffffffffffffffffffffffffffffffffffff1690602001909190803590602001908201803590602001908080601f01602080910402602001604051908101604052809392919081815260200183838082843782019150505050505091905050610262565b005b34156100ee57600080fd5b6100f661037c565b6040518080602001828103825283818151815260200191508051906020019060200280838360005b8381101561013957808201518184015260208101905061011e565b505050509050019250505060405180910390f35b341561015857600080fd5b61016e6004808035906020019091905050610410565b604051808273ffffffffffffffffffffffffffffffffffffffff1673ffffffffffffffffffffffffffffffffffffffff16815260200191505060405180910390f35b34156101bb57600080fd5b6101e7600480803573ffffffffffffffffffffffffffffffffffffffff1690602001909190505061044f565b6040518080602001828103825283818151815260200191508051906020019080838360005b8381101561022757808201518184015260208101905061020c565b50505050905090810190601f1680156102545780820380516001836020036101000a031916815260200191505b509250505060405180910390f35b600360009054906101000a900473ffffffffffffffffffffffffffffffffffffffff1673ffffffffffffffffffffffffffffffffffffffff163373ffffffffffffffffffffffffffffffffffffffff161415156102be57600080fd5b80600160008473ffffffffffffffffffffffffffffffffffffffff1673ffffffffffffffffffffffffffffffffffffffff1681526020019081526020016000209080519060200190610311929190610536565b5060016002805480600101828161032891906105b6565b9160005260206000209001600085909190916101000a81548173ffffffffffffffffffffffffffffffffffffffff021916908373ffffffffffffffffffffffffffffffffffffffff16021790555050505050565b6103846105e2565b600280548060200260200160405190810160405280929190818152602001828054801561040657602002820191906000526020600020905b8160009054906101000a900473ffffffffffffffffffffffffffffffffffffffff1673ffffffffffffffffffffffffffffffffffffffff16815260200190600101908083116103bc575b5050505050905090565b60028181548110151561041f57fe5b90600052602060002090016000915054906101000a900473ffffffffffffffffffffffffffffffffffffffff1681565b6104576105f6565b600160008373ffffffffffffffffffffffffffffffffffffffff1673ffffffffffffffffffffffffffffffffffffffff1681526020019081526020016000208054600181600116156101000203166002900480601f01602080910402602001604051908101604052809291908181526020018280546001816001161561010002031660029004801561052a5780601f106104ff5761010080835404028352916020019161052a565b820191906000526020600020905b81548152906001019060200180831161050d57829003601f168201915b50505050509050919050565b828054600181600116156101000203166002900490600052602060002090601f016020900481019282601f1061057757805160ff19168380011785556105a5565b828001600101855582156105a5579182015b828111156105a4578251825591602001919060010190610589565b5b5090506105b2919061060a565b5090565b8154818355818115116105dd578183600052602060002091820191016105dc919061060a565b5b505050565b602060405190810160405280600081525090565b602060405190810160405280600081525090565b61062c91905b80821115610628576000816000905550600101610610565b5090565b905600a165627a7a7230582023e0bb9805a86dd59373ab2e6c417dc801d4d7b905820b24c2f334f2b8c516f00029",
  "source": "pragma solidity ^0.4.18;\n\ncontract Games {\n    \n    string encrypted_result;\n    // game instance information\n    /** \n      Below function commented out, as we are going to store only\n      encrypted result of a game instance on blockchain, we can use\n      this struct if more data required to store related to game\n    **/\n    // struct GameInstance {\n    //     string game_name;\n    //     byte32 encrypted_result;\n    // }\n    \n    mapping (address => string) gameInstances;// mapping of game instance address with its result\n    address[] public gameInstanceAccounts;//public address array of all game instances\n    \n    address owner;// application account\n   \n    function Games() public{\n        owner = msg.sender;\n    }\n    \n    modifier onlyOwner {\n        require(msg.sender == owner);\n        _;\n    }\n    \n    function setGameInstance(address _address, string _encrypted_result) onlyOwner public {\n        gameInstances[_address] = _encrypted_result;\n        \n        gameInstanceAccounts.push(_address) -1;\n    }\n    \n    function getGameInstances() view public returns(address[]) {\n        return gameInstanceAccounts;\n    }\n    \n    function getGameInstance(address _address) view public returns (string) {\n        return (gameInstances[_address]);\n    }    \n}",
  "sourcePath": "/home/synerzip/projects/gambling-portal/on-chain/contracts/Games.sol",
  "compiler": {
    "name": "solc",
    "version": "0.4.18+commit.9cf6e910.Emscripten.clang"
  },
  "schemaVersion": "1.0.1",
  "updatedAt": "2018-03-19T09:20:15.121Z"
}